{
  "_format": "hh-sol-artifact-1",
  "contractName": "SimpleSwapRouter",
  "sourceName": "contracts/SimpleSwapRouter.sol",
  "abi": [
    {
      "inputs": [
        {
          "internalType": "address",
          "name": "token",
          "type": "address"
        }
      ],
      "name": "SafeERC20FailedOperation",
      "type": "error"
    },
    {
      "anonymous": false,
      "inputs": [
        {
          "indexed": true,
          "internalType": "address",
          "name": "user",
          "type": "address"
        },
        {
          "indexed": true,
          "internalType": "address",
          "name": "tokenIn",
          "type": "address"
        },
        {
          "indexed": true,
          "internalType": "address",
          "name": "tokenOut",
          "type": "address"
        },
        {
          "indexed": false,
          "internalType": "uint256",
          "name": "amountIn",
          "type": "uint256"
        },
        {
          "indexed": false,
          "internalType": "uint256",
          "name": "amountOut",
          "type": "uint256"
        }
      ],
      "name": "Swap",
      "type": "event"
    },
    {
      "inputs": [],
      "name": "SWAP_RATE",
      "outputs": [
        {
          "internalType": "uint256",
          "name": "",
          "type": "uint256"
        }
      ],
      "stateMutability": "view",
      "type": "function"
    },
    {
      "inputs": [
        {
          "internalType": "address",
          "name": "token",
          "type": "address"
        },
        {
          "internalType": "uint256",
          "name": "amount",
          "type": "uint256"
        }
      ],
      "name": "addLiquidity",
      "outputs": [],
      "stateMutability": "nonpayable",
      "type": "function"
    },
    {
      "inputs": [
        {
          "internalType": "address",
          "name": "token",
          "type": "address"
        }
      ],
      "name": "getReserve",
      "outputs": [
        {
          "internalType": "uint256",
          "name": "",
          "type": "uint256"
        }
      ],
      "stateMutability": "view",
      "type": "function"
    },
    {
      "inputs": [
        {
          "internalType": "address",
          "name": "tokenIn",
          "type": "address"
        },
        {
          "internalType": "address",
          "name": "tokenOut",
          "type": "address"
        },
        {
          "internalType": "uint256",
          "name": "amountIn",
          "type": "uint256"
        },
        {
          "internalType": "uint256",
          "name": "amountOutMin",
          "type": "uint256"
        }
      ],
      "name": "swapExactTokensForTokens",
      "outputs": [
        {
          "internalType": "uint256",
          "name": "amountOut",
          "type": "uint256"
        }
      ],
      "stateMutability": "nonpayable",
      "type": "function"
    }
  ],
  "bytecode": "0x608060405234801561001057600080fd5b50610869806100206000396000f3fe608060405234801561001057600080fd5b506004361061004c5760003560e01c8063566887001461005157806389fe039b14610066578063c9a396e91461008b578063e8c8bfac1461009e575b600080fd5b61006461005f3660046105df565b6100ad565b005b610079610074366004610609565b6100c6565b60405190815260200160405180910390f35b61007961009936600461064b565b610379565b610079670de0b6b3a764000081565b6100c26001600160a01b0383163330846103ea565b5050565b6000836001600160a01b0316856001600160a01b0316036101275760405162461bcd60e51b815260206004820152601660248201527521b0b73737ba1039bbb0b81039b0b6b2903a37b5b2b760511b60448201526064015b60405180910390fd5b600083116101775760405162461bcd60e51b815260206004820152601d60248201527f416d6f756e74206d7573742062652067726561746572207468616e2030000000604482015260640161011e565b8484600061018483610457565b9050600061019188610457565b90508060ff168260ff1611156101c7576101ab8183610683565b6101b690600a610780565b6101c0908861078f565b94506101f8565b8160ff168160ff1611156101f4576101df8282610683565b6101ea90600a610780565b6101c090886107b1565b8694505b858510156102485760405162461bcd60e51b815260206004820152601a60248201527f496e73756666696369656e74206f757470757420616d6f756e74000000000000604482015260640161011e565b61025d6001600160a01b03851633308a6103ea565b6040516370a0823160e01b815230600482015285906001600160a01b038516906370a0823190602401602060405180830381865afa1580156102a3573d6000803e3d6000fd5b505050506040513d601f19601f820116820180604052508101906102c791906107c8565b101561030e5760405162461bcd60e51b8152602060048201526016602482015275496e73756666696369656e74206c697175696469747960501b604482015260640161011e565b6103226001600160a01b038416338761051c565b60408051888152602081018790526001600160a01b03808b1692908c169133917fcd3829a3813dc3cdd188fd3d01dcf3268c16be2fdd2dd21d0665418816e46062910160405180910390a450505050949350505050565b6040516370a0823160e01b81523060048201526000906001600160a01b038316906370a0823190602401602060405180830381865afa1580156103c0573d6000803e3d6000fd5b505050506040513d601f19601f820116820180604052508101906103e491906107c8565b92915050565b6040516001600160a01b0384811660248301528381166044830152606482018390526104519186918216906323b872dd906084015b604051602081830303815290604052915060e01b6020820180516001600160e01b038381831617835250505050610552565b50505050565b60408051600481526024810182526020810180516001600160e01b031663313ce56760e01b1790529051600091829182916001600160a01b0386169161049d91906107e1565b600060405180830381855afa9150503d80600081146104d8576040519150601f19603f3d011682016040523d82523d6000602084013e6104dd565b606091505b50915091508180156104f157506020815110155b15610512578080602001905181019061050a9190610810565b949350505050565b5060129392505050565b6040516001600160a01b0383811660248301526044820183905261054d91859182169063a9059cbb9060640161041f565b505050565b600080602060008451602086016000885af180610575576040513d6000823e3d81fd5b50506000513d9150811561058d57806001141561059a565b6001600160a01b0384163b155b1561045157604051635274afe760e01b81526001600160a01b038516600482015260240161011e565b80356001600160a01b03811681146105da57600080fd5b919050565b600080604083850312156105f257600080fd5b6105fb836105c3565b946020939093013593505050565b6000806000806080858703121561061f57600080fd5b610628856105c3565b9350610636602086016105c3565b93969395505050506040820135916060013590565b60006020828403121561065d57600080fd5b610666826105c3565b9392505050565b634e487b7160e01b600052601160045260246000fd5b60ff82811682821603908111156103e4576103e461066d565b600181815b808511156106d75781600019048211156106bd576106bd61066d565b808516156106ca57918102915b93841c93908002906106a1565b509250929050565b6000826106ee575060016103e4565b816106fb575060006103e4565b8160018114610711576002811461071b57610737565b60019150506103e4565b60ff84111561072c5761072c61066d565b50506001821b6103e4565b5060208310610133831016604e8410600b841016171561075a575081810a6103e4565b610764838361069c565b80600019048211156107785761077861066d565b029392505050565b600061066660ff8416836106df565b6000826107ac57634e487b7160e01b600052601260045260246000fd5b500490565b80820281158282048414176103e4576103e461066d565b6000602082840312156107da57600080fd5b5051919050565b6000825160005b8181101561080257602081860181015185830152016107e8565b506000920191825250919050565b60006020828403121561082257600080fd5b815160ff8116811461066657600080fdfea2646970667358221220c088fc2cdccfb27cc1fc82ea87d8b538c5e3135305a8db48e4a4497a5d8a13b364736f6c63430008140033",
  "linkReferences": {},
  "deployedLinkReferences": {}
}