{
  "_format": "hh-sol-artifact-1",
  "contractName": "SimpleSwapRouter",
  "sourceName": "contracts/SimpleSwapRouter.sol",
  "abi": [
    {
      "inputs": [
        {
          "internalType": "address",
          "name": "token",
          "type": "address"
        }
      ],
      "name": "SafeERC20FailedOperation",
      "type": "error"
    },
    {
      "anonymous": false,
      "inputs": [
        {
          "indexed": true,
          "internalType": "address",
          "name": "user",
          "type": "address"
        },
        {
          "indexed": true,
          "internalType": "address",
          "name": "tokenIn",
          "type": "address"
        },
        {
          "indexed": true,
          "internalType": "address",
          "name": "tokenOut",
          "type": "address"
        },
        {
          "indexed": false,
          "internalType": "uint256",
          "name": "amountIn",
          "type": "uint256"
        },
        {
          "indexed": false,
          "internalType": "uint256",
          "name": "amountOut",
          "type": "uint256"
        }
      ],
      "name": "Swap",
      "type": "event"
    },
    {
      "inputs": [],
      "name": "SWAP_RATE",
      "outputs": [
        {
          "internalType": "uint256",
          "name": "",
          "type": "uint256"
        }
      ],
      "stateMutability": "view",
      "type": "function"
    },
    {
      "inputs": [
        {
          "internalType": "address",
          "name": "token",
          "type": "address"
        },
        {
          "internalType": "uint256",
          "name": "amount",
          "type": "uint256"
        }
      ],
      "name": "addLiquidity",
      "outputs": [],
      "stateMutability": "nonpayable",
      "type": "function"
    },
    {
      "inputs": [
        {
          "internalType": "address",
          "name": "token",
          "type": "address"
        }
      ],
      "name": "getReserve",
      "outputs": [
        {
          "internalType": "uint256",
          "name": "",
          "type": "uint256"
        }
      ],
      "stateMutability": "view",
      "type": "function"
    },
    {
      "inputs": [
        {
          "internalType": "address",
          "name": "tokenIn",
          "type": "address"
        },
        {
          "internalType": "address",
          "name": "tokenOut",
          "type": "address"
        },
        {
          "internalType": "uint256",
          "name": "amountIn",
          "type": "uint256"
        },
        {
          "internalType": "uint256",
          "name": "amountOutMin",
          "type": "uint256"
        }
      ],
      "name": "swapExactTokensForTokens",
      "outputs": [
        {
          "internalType": "uint256",
          "name": "amountOut",
          "type": "uint256"
        }
      ],
      "stateMutability": "nonpayable",
      "type": "function"
    }
  ],
  "bytecode": "0x608060405234801561001057600080fd5b506108d1806100206000396000f3fe608060405234801561001057600080fd5b506004361061004c5760003560e01c8063566887001461005157806389fe039b14610066578063c9a396e91461008b578063e8c8bfac1461009e575b600080fd5b61006461005f366004610647565b6100ad565b005b610079610074366004610671565b6100c6565b60405190815260200160405180910390f35b6100796100993660046106b3565b6103e1565b610079670de0b6b3a764000081565b6100c26001600160a01b038316333084610452565b5050565b6000836001600160a01b0316856001600160a01b0316036101275760405162461bcd60e51b815260206004820152601660248201527521b0b73737ba1039bbb0b81039b0b6b2903a37b5b2b760511b60448201526064015b60405180910390fd5b600083116101775760405162461bcd60e51b815260206004820152601d60248201527f416d6f756e74206d7573742062652067726561746572207468616e2030000000604482015260640161011e565b84846000610184836104bf565b90506000610191886104bf565b90508160ff1660121480156101a957508060ff166006145b156101d357670de0b6b3a76400006101c288600b6106eb565b6101cc9190610702565b9450610260565b8160ff1660061480156101e957508060ff166012145b1561020257600b6101c288670de0b6b3a76400006106eb565b8060ff168260ff16111561022f5761021a8183610724565b61022590600a610821565b6101cc9088610702565b8160ff168160ff16111561025c576102478282610724565b61025290600a610821565b6101cc90886106eb565b8694505b858510156102b05760405162461bcd60e51b815260206004820152601a60248201527f496e73756666696369656e74206f757470757420616d6f756e74000000000000604482015260640161011e565b6102c56001600160a01b03851633308a610452565b6040516370a0823160e01b815230600482015285906001600160a01b038516906370a0823190602401602060405180830381865afa15801561030b573d6000803e3d6000fd5b505050506040513d601f19601f8201168201806040525081019061032f9190610830565b10156103765760405162461bcd60e51b8152602060048201526016602482015275496e73756666696369656e74206c697175696469747960501b604482015260640161011e565b61038a6001600160a01b0384163387610584565b60408051888152602081018790526001600160a01b03808b1692908c169133917fcd3829a3813dc3cdd188fd3d01dcf3268c16be2fdd2dd21d0665418816e46062910160405180910390a450505050949350505050565b6040516370a0823160e01b81523060048201526000906001600160a01b038316906370a0823190602401602060405180830381865afa158015610428573d6000803e3d6000fd5b505050506040513d601f19601f8201168201806040525081019061044c9190610830565b92915050565b6040516001600160a01b0384811660248301528381166044830152606482018390526104b99186918216906323b872dd906084015b604051602081830303815290604052915060e01b6020820180516001600160e01b0383818316178352505050506105ba565b50505050565b60408051600481526024810182526020810180516001600160e01b031663313ce56760e01b1790529051600091829182916001600160a01b038616916105059190610849565b600060405180830381855afa9150503d8060008114610540576040519150601f19603f3d011682016040523d82523d6000602084013e610545565b606091505b509150915081801561055957506020815110155b1561057a57808060200190518101906105729190610878565b949350505050565b5060129392505050565b6040516001600160a01b038381166024830152604482018390526105b591859182169063a9059cbb90606401610487565b505050565b600080602060008451602086016000885af1806105dd576040513d6000823e3d81fd5b50506000513d915081156105f5578060011415610602565b6001600160a01b0384163b155b156104b957604051635274afe760e01b81526001600160a01b038516600482015260240161011e565b80356001600160a01b038116811461064257600080fd5b919050565b6000806040838503121561065a57600080fd5b6106638361062b565b946020939093013593505050565b6000806000806080858703121561068757600080fd5b6106908561062b565b935061069e6020860161062b565b93969395505050506040820135916060013590565b6000602082840312156106c557600080fd5b6106ce8261062b565b9392505050565b634e487b7160e01b600052601160045260246000fd5b808202811582820484141761044c5761044c6106d5565b60008261071f57634e487b7160e01b600052601260045260246000fd5b500490565b60ff828116828216039081111561044c5761044c6106d5565b600181815b8085111561077857816000190482111561075e5761075e6106d5565b8085161561076b57918102915b93841c9390800290610742565b509250929050565b60008261078f5750600161044c565b8161079c5750600061044c565b81600181146107b257600281146107bc576107d8565b600191505061044c565b60ff8411156107cd576107cd6106d5565b50506001821b61044c565b5060208310610133831016604e8410600b84101617156107fb575081810a61044c565b610805838361073d565b8060001904821115610819576108196106d5565b029392505050565b60006106ce60ff841683610780565b60006020828403121561084257600080fd5b5051919050565b6000825160005b8181101561086a5760208186018101518583015201610850565b506000920191825250919050565b60006020828403121561088a57600080fd5b815160ff811681146106ce57600080fdfea2646970667358221220d88617b5595cdeaaf1ff5db4671f47cf96d9b709d38d7ee1096ed83e93b95e1964736f6c63430008140033",
  "linkReferences": {},
  "deployedLinkReferences": {}
}